:020000040800F2
:1000000000000220B90A0008210200082F0200089F
:10001000350200083B020008410200080000000011
:10002000000000000000000000000000470200087F
:100030005502000800000000630200087102000879
:10004000050B0008050B0008050B0008050B000850
:10005000050B0008050B0008050B0008050B000840
:10006000050B0008050B0008050B0008050B000830
:10007000050B0008050B0008050B0008050B000820
:10008000050B0008050B0008050B00080000000028
:10009000000000000000000000000000050B000848
:1000A000050B0008050B0008050B0008050B0008F0
:1000B000050B0008050B0008050B0008050B0008E0
:1000C000050B0008050B0008050B0008050B0008D0
:1000D000050B0008050B0008050B000800000000D8
:1000E000050B0008050B0008050B000800000000C8
:1000F000000000000000000000000000050B0008E8
:1001000000000000050B0008050B0008050B0008A7
:1001100000000000000000000000000000000000DF
:10012000050B0008050B0008050B0008050B00086F
:10013000050B0008000000000000000000000000A7
:10014000000000000000000000000000050B000897
:10015000050B0008050B0008050B0008050B00083F
:10016000050B0008050B000800000000000000005F
:10017000000000000000000000000000000000007F
:1001800000000000050B0008000000000000000057
:08019000050B0008050B000837
:100198000348044B834202D0034B03B1184770470E
:1001A80038050020380500200000000005480649F1
:1001B8000B1AD90F01EBA301491002D0034B03B16D
:1001C8001847704738050020380500200000000057
:1001D80010B5064C237843B9FFF7DAFF044B13B187
:1001E8000448AFF300800123237010BD38050020B8
:1001F800000000001C0B000808B5044B1BB10449A3
:100208000448AFF30080BDE80840CFE700000000D5
:100218003C0500201C0B000880B400AF00BFBD46A1
:100228005DF8047B704780B400AFFEE780B400AF90
:10023800FEE780B400AFFEE780B400AFFEE780B40D
:1002480000AF00BFBD465DF8047B704780B400AFC7
:1002580000BFBD465DF8047B704780B400AF00BFA7
:10026800BD465DF8047B704780B400AF00BFBD4653
:100278005DF8047B7047000080B483B000AF03468C
:10028800FB71FB79052B00F2928001A252F823F052
:10029800B1020008D9020008010300082903000878
:1002A8005103000879030008444B1B6803F001035D
:1002B800002B71D1414B1B68404A43F00103136086
:1002C80000BF3E4B1B6803F00203002BF9D063E02C
:1002D8003A4B1B6803F48033002B5FD1374B1B6804
:1002E800364A43F45023136000BF344B1B6803F4B1
:1002F8000033002BF9D051E0304B1B6803F08073BA
:10030800002B4DD12D4B1B682C4A43F08073136092
:1003180000BF2A4B1B6803F00073002BF9D03FE0A5
:10032800264B1B6803F08063002B3BD1234B1B68D3
:10033800224A43F08063136000BF204B1B6803F020
:100348000063002BF9D02DE01C4B5B6F03F0010319
:10035800002B29D1194B5B6F184A43F001035367EF
:1003680000BF164B5B6F03F00203002BF9D01BE0B4
:10037800124B1B6F03F00103002B17D10F4B1B6FA0
:100388000E4A43F00103136700BF0C4B1B6F03F0C9
:100398000203002BF9D009E000BF08E000BF06E027
:1003A80000BF04E000BF02E000BF00E000BF00BFE4
:1003B8000C37BD465DF8047B704700BF003802402B
:1003C80080B483B000AF0346FB71FB79052B39D8A5
:1003D80001A252F823F000BFF9030008070400083F
:1003E8001504000823040008310400083F0400082D
:1003F800174B1B68164A23F00103136022E0144BC5
:100408001B68134A23F4502313601BE0104B1B682E
:100418000F4A23F08073136014E00D4B1B680C4ADD
:1004280023F0806313600DE0094B5B6F084A23F0EB
:100438000103536706E0064B1B6F054A23F00103CF
:10044800136700BF00BF0C37BD465DF8047B7047DB
:100458000038024080B483B000AF0346FB710D4BF7
:100468009B6823F00302FB7903F003030949134354
:100478008B6000BF074B9B689B0803F00302FB7966
:100488009A42F7D100BF00BF0C37BD465DF8047B28
:10049800704700BF0038024080B584B000AF786074
:1004A8007B68072B08D87A681346DB009B1A9B00E9
:1004B8006F4A1344FB6001E06E4BFB60FB681B78DE
:1004C800012B0FD10120FFF7D7FE0120FFF7C2FF54
:1004D8000220FFF775FF0020FFF772FF664B01222D
:1004E8001A609DE0FB681B78022B40F08D80634BFF
:1004F8001B6C624A43F080531364FB685B78012BE2
:100508000CD10120FFF7B8FE5B4B01221A605B4B50
:100518005B685A4A43F4800353600BE00020FFF7FE
:10052800ABFE554B00221A60544B5B68534A23F4C8
:1005380080035360524B1B6823F04053FA68D27A09
:10054800120711464E4A0B4313604C4B9B6823F429
:100558007C4323F0F003FA68127A1201D2B21A43EC
:10056800FB685B7A9B0203F4E0531A43FB689B7AAF
:100578005B039BB2414913438B60404B5A68414B24
:100588001340FA68127902F03F021A43FB685B884D
:100598009B01194647F6C0730B401A43FB685B7909
:1005A8005B08DBB2013B1B0403F440331A43FB68CE
:1005B8009B791B0603F07C53304913434B600220A0
:1005C800FFF75AFE304B1B6823F00F02FB68DB680D
:1005D80003F00F0313432C4A43F4E0631360022033
:1005E800FFF738FFFB685B78012B09D1234B1B68A9
:1005F80003F00103002B03D00020FFF7E1FE0FE01A
:100608000120FFF7DDFE0BE00020FFF735FE00209C
:10061800FFF720FF0220FFF7D3FE0120FFF7D0FEEF
:10062800FB681B69144A5360FB685B69124A936054
:10063800FB685B7A002B02D1FB685B6902E0FB6810
:100648005B695B000C4AD360FB689B690A4A1361CB
:10065800FB689B7A002B02D1FB689B6902E0FB6870
:100668009B695B00044A536100BF1037BD4680BDDB
:1006780004000020740000205405002000380240C7
:10068800007000400080FCF0003C024080B582B061
:1006980000AF78600320FFF793FE7B689B681B0719
:1006A80003F0E0427B685B68990147F6C0730B4032
:1006B80042EA03017B681B6803F03F02104B1B688A
:1006C8000A43C3F884200320FFF7D6FD0D4B1B68AF
:1006D800002B01D00C4A00E00C4A7B681B68B2FB77
:1006E800F3F37A68526803FB02F27B689B68B2FBFB
:1006F800F3F3044A936100BF0837BD4680BD00BFCD
:10070800140C00085405002000127A000024F4009C
:1007180080B500AF174BD3F88830164A43F47003FE
:10072800C2F88830144B1B68134A43F00103136066
:10073800114B00229A60104B1B680F4A23F08473F8
:1007480023F4803313600C4B0C4A5A600A4B1B6825
:10075800094A23F480231360074B0022DA60022041
:10076800FFF79AFE034B4FF000629A6000F008F81A
:1007780000BF80BD00ED00E00038024010300024CA
:1007880080B487B000AF00233B6100237B61022364
:10079800FB600023BB6002237B60344B9B6803F043
:1007A8000C033B613B69082B11D03B69082B44D8EB
:1007B8003B69002B03D03B69042B04D03DE02C4B54
:1007C8002C4A1A603DE02A4B2B4A1A6039E0274B25
:1007D8005B689B0D03F00103BB60244B5B6803F06F
:1007E8003F037B60BB68002B0CD0234A7B68B2FBBD
:1007F800F3F31E4A52689209C2F3080202FB03F39C
:100808007B610BE01B4A7B68B2FBF3F3174A526823
:100818009209C2F3080202FB03F37B61134B5B6886
:100828001B0C03F0030301335B00FB607A69FB6870
:10083800B2FBF3F30E4A136003E00D4B0D4A1A6046
:1008480000BF0A4B9B681B0903F00F030B4AD35CDC
:100858003B61074B1A683B6922FA03F3044A1360A9
:1008680000BF1C37BD465DF8047B70470038024066
:10087800AC0000200024F40000127A006C0C000880
:100888004FF0000210F8011B002902D002F101020A
:10089800F8E71046F74600F102004FF000024FF06B
:1008A800000310F8011B30291FD3392905D8A1F1FD
:1008B80030034FEA02121A44F3E7412915D34629B7
:1008C80007D8A1F1410303F10A034FEA02121A44BF
:1008D800E7E7612909D3662907D8A1F1610303F184
:1008E8000A034FEA02121A44DBE71046F7460000F3
:1008F8004FF0030101EB8102A2F10102A2F1010212
:10090800013A013A00F03EF81D6800F03BF81D7806
:1009180000F038F853F8045C00F034F813F822506B
:1009280000F030F8B3F9045000F02CF803F8045F35
:1009380000F028F825F8023B00F024F853F8035C8F
:1009480000F020F8A5F801301A4800681A4909682B
:1009580001441A4801601A484FF000014FF00002A4
:100968000A2905DA50F821301A4401F10101F7E7A4
:10097800124802601348FFF783FF1248FFF78BFF06
:1009880000BFFEE74FF0005040F4005006490160F8
:10099800DFF818104160064981604FF0010200F14C
:1009A800040300F10205F746554400001186326B36
:1009B800CCAA2277D8000020DC0000207005002097
:1009C800B0000020E0000020002301461A46184627
:1009D80000F03AB838B5084B084D5B1B9C1007D09F
:1009E800043B1D44013C55F804399847002CF9D1C3
:1009F800BDE8384000F094B8B80C0008B40C000802
:100A080070B50D4E0D4D761BB61006D0002455F866
:100A1800043B01349847A642F9D1094E094D761B8B
:100A280000F078F8B61006D0002455F8043B0134DD
:100A38009847A642F9D170BDAC0C0008AC0C000870
:100A4800B40C0008AC0C000870B4184C2568D5F834
:100A580048411CB365681F2D25DC38B9AB1C01352E
:100A6800656044F82310002070BC704704EB850CC7
:100A78000228CCF88820D4F888614FF0010202FAE5
:100A880005F246EA0206C4F88861CCF80831E5D1D7
:100A9800D4F88C311343C4F88C31DFE705F5A6741C
:100AA800C5F84841D6E74FF0FF30DDE7840C000871
:100AB8000D480E490E4A914204D050F8044B41F8B3
:100AC800044BF8E70B480C494FF00002884202D06B
:100AD80040F8042BFAE7FFF71BFEFFF791FFFFF73B
:100AE80007FFFFF7FEBF0000B80C00080000002059
:100AF800380500203805002080050020FEE70000AA
:100B0800024B13B10248FFF75FBF704700000000B7
:100B1800DD090008F8B500BFF8BC08BC9E46704760
:0C0B2800F8B500BFF8BC08BC9E46704742
:100B34003A3D0A3D0F3D243D323D023D053D133D06
:100B44000D3D0C3D233D113D263D013D173D083D26
:100B5400093D000000E000E000ED00E010E000E0EE
:100B640000E100E0000000E0001000E0000004E00C
:100B7400F0ED00E090ED00E030EF00E00000004018
:100B84000004004000080040000C00400028004021
:100B9400002C004000300040003400400038004089
:100BA400003C00400040004000440040005400402D
:100BB40000580040005C004000700040000001400C
:100BC40000100140001401400020014000230140B6
:100BD400002C014000300140003401400038014045
:100BE400003C0140004001400044014000480140F5
:100BF400005001400000024000040240000802408E
:100C0400000C024000100240001C02400030024070
:100C140000380240003C0240006002401060024084
:100C24002860024040600240586002407060024008
:100C340088600240A0600240B86002400064024044
:100C44001064024028640240406402405864024038
:100C54007064024088640240A0640240B8640240A8
:100C6400002004E00000005000000000000000002C
:100C7400010203040607080900000000010203043E
:100C8400100100203A3D0A3D0F3D243D323D023D16
:100C9400053D133D0D3D0C3D233D113D263D013DDC
:080CA400173D083D093D000069
:080CAC00090B00080102000819
:040CB400D90100085A
:100CB800000000000100000000000000000000002B
:100CC800000000000000000000000000000000001C
:100CD8000201600008020200000504010300000090
:100CE800006CDC02001BB70000366E0102015001E7
:100CF80008040700000400020200000000BD01050E
:100D080080DE800200BD01050201C0000802020069
:100D1800000400030300000000D8B805006CDC02E2
:100D280000D8B80500000000000000000000000026
:100D380000000000000000000000000000000000AB
:100D4800020050010804070000040002020000002D
:100D580000BD010580DE800200BD01050024F4000D
:100D68000100000002000000030000000400000071
:100D78000500000006000000070000000800000051
:100D8800090000000A000000030000000400000041
:100D9800307831304133006C2768697665722C20D1
:100DA800632765737420E289A0206465206C27C3DB
:100DB800A974C3A900000000100100200000000071
:100DC80000000000FC03002064040020CC04002084
:100DD800000000000000000000000000000000000B
:100DE80000000000000000000000000000000000FB
:100DF80000000000000000000000000000000000EB
:100E080000000000000000000000000000000000DA
:100E180000000000000000000000000000000000CA
:100E280000000000000000000000000000000000BA
:100E380000000000000000000000000000000000AA
:100E4800000000000000000000000000000000009A
:100E5800000000000000000000000000000000008A
:100E68000000000000000000010000000000000079
:100E78000E33CDAB34126DE6ECDE05000B0000003E
:100E8800000000000000000000000000000000005A
:100E9800000000000000000000000000000000004A
:100EA800000000000000000000000000000000003A
:100EB800000000000000000000000000000000002A
:0400000508000AB92C
:00000001FF
